S0100000544F4D4F5F565F312E7372656390
S11300000C94A9000C94C6000C94C6000C94C60071
S11300100C94C6000C94C6000C94C6000C94C60044
S11300200C94C6000C94C6000C94C6000C94C60034
S11300300C94C6000C94C6000C94C6000C94C60024
S11300400C94C6000C94C6000C94C6000C94C60014
S11300506E616E00696E660000407A10F35A00A06B
S1130060724E18090010A5D4E80000E8764817007D
S113007000E40B54020000CA9A3B000000E1F505BD
S1130080000080969800000040420F000000A08607
S113009001000000102700000000E8030000000039
S11300A06400000000000A000000000001000000DD
S11300B000002C76D888DC674F0823DFC1DFAE59F7
S11300C0E1B1B796E5E3E453C63AE651997696E88A
S11300D0E6C28426EB898C9B62ED407C6FFCEFBC0E
S11300E09C9F40F2BAA56FA5F490055A2AF75C9339
S11300F06B6CF9676DC11BFCE0E40D47FEF520E66F
S1130100B500D0ED902E0300943577050080841E51
S1130110080000204E0A000000C80C333333330FAC
S1130120986E12831141EF8D2114893BE65516CF49
S1130130FEE6DB18D1844B381BF77C1D901DA4BB55
S1130140E424203284725E228100C9F124ECA1E50A
S11301503D2711241FBECFEFD2E0DEBFCDBF12E09A
S1130160A0E0B1E0ECE1F7E102C005900D92A83502
S1130170B107D9F722E0A8E5B2E001C01D92AE357F
S1130180B207E1F70E9452010C948C0B0C9400000E
S113019080917A0084FFFCCF80917800909179005F
S11301A00895E3E8F0E0808181608083E0E8F0E096
S11301B0808182688083E1E8F0E0808188618083C7
S11301C080818260808383E191E0909387008093B3
S11301D086000895E3E8F0E080818E7F80830895AF
S11301E0E3E8F0E08081816080830895ACE7B0E0CB
S11301F09C919B7F9C93EAE7F0E0908195609083CB
S113020090819068908390819064908390819062B3
S113021090839C91907E892B8C930895CF92DF924A
S1130220EF92FF92CF93DF93C0E0D0E0C12CD12CAA
S1130230760126C00E94C8002FEF35EA4EE0215017
S113024030404040E1F700C00000BC01990F880B2A
S1130250990B0E94D4042FE135E843EA50E40E944C
S1130260890520E030EC4FE754E40E9460049B01D0
S1130270AC01C701B6010E94EF036B017C0121961A
S1130280CA30D105BCF220E030E040E251E4C701BD
S1130290B6010E946004DF91CF91FF90EF90DF9050
S11302A0CF90089583E084B981E085B980E091E03E
S11302B090935B0280935A020E94D1000E94EA004C
S11302C00E94D90386E00E94F6008EE091E00E942D
S11302D0FC0AFF24F3943CC281E291E00E94FC0AF0
S11302E00E940E0120E030E040E251E40E948905C2
S11302F0062F172FD82FC92F9F938F937F936F9318
S11303008FE291E09F938F930E94E60A0F900F90E3
S11303100F900F900F900F902DEC3CEC4CED50E4AF
S1130320602F712F8D2F9C2F0E945B04882374F4FF
S11303300E94F00086E491E00E94FC0A8EE190E0C5
S1130340909389008093880083E085B92DEC3CEC80
S11303504CED50E4602F712F8D2F9C2F0E9484054B
S11303608823D4F020E030E048E551E4602F712F79
S11303708D2F9C2F0E945B04882374F40E94F0004C
S11303808AE591E00E94FC0A81E290E09093890062
S11303908093880083E085B920E030E048E551E4AB
S11303A0602F712F8D2F9C2F0E9484058823D4F0F9
S11303B02AE939E94DE951E4602F712F8D2F9C2FE3
S11303C00E945B04882374F40E94F0008EE691E09E
S11303D00E94FC0A83E290E0909389008093880055
S11303E083E085B92AE939E94DE951E4602F712F99
S11303F08D2F9C2F0E9484058823D4F026E636E6B0
S113040042EB51E4602F712F8D2F9C2F0E945B04CF
S1130410882374F40E94F00082E891E00E94FC0AB0
S113042086E290E0909389008093880083E085B908
S113043026E636E642EB51E4602F712F8D2F9C2F78
S11304400E9484058823D4F02DEC3CEC48EC51E464
S1130450602F712F8D2F9C2F0E945B04882374F4CE
S11304600E94F00086E991E00E94FC0A89E290E093
S1130470909389008093880083E085B92DEC3CEC4F
S113048048EC51E4602F712F8D2F9C2F0E9484051E
S11304908823D4F026E636E64EED51E4602F712F22
S11304A08D2F9C2F0E945B04882374F40E94F0001B
S11304B08AEA91E00E94FC0A8CE290E09093890021
S11304C08093880083E085B926E636E64EED51E454
S11304D0602F712F8D2F9C2F0E9484058823D4F0C8
S11304E026E636E642EF51E4602F712F8D2F9C2FC4
S11304F00E945B04882374F40E94F0008EEB91E068
S11305000E94FC0A81E390E0909389008093880024
S113051083E085B926E636E642EF51E4602F712F79
S11305208D2F9C2F0E9484058823D4F02AE939E971
S113053043E052E4602F712F8D2F9C2F0E945B04A7
S1130540882374F40E94F00082ED91E00E94FC0A7A
S113055087E390E0909389008093880083E085B9D5
S11305602AE939E943E052E4602F712F8D2F9C2F43
S11305700E9484058823D4F02AE939E94DE052E445
S1130580602F712F8D2F9C2F0E945B04882374F49D
S11305900E94F00086EE91E00E94FC0A82E490E062
S11305A0909389008093880083E085B92AE939E92A
S11305B04DE052E4602F712F8D2F9C2F0E948405F3
S11305C08823D4F023E333E347E152E4602F712F0F
S11305D08D2F9C2F0E945B04882374F40E94F000EA
S11305E08AEF91E00E94FC0A82E590E090938900F2
S11305F08093880083E085B923E333E347E152E441
S1130600602F712F8D2F9C2F0E9484058823D4F096
S11306102DEC3CEC40E252E4602F712F8D2F9C2F87
S11306200E945B04882374F40E94F0008EE092E040
S11306300E94FC0A8EE690E09093890080938800E3
S113064083E085B92DEC3CEC40E252E4602F712F3D
S11306508D2F9C2F0E9484058823D4F02AE939E940
S113066049E252E4602F712F8D2F9C2F0E945B046E
S1130670882374F40E94F00082E292E00E94FC0A53
S113068085EA90E0909389008093880083E085B99F
S11306902AE939E949E252E4602F712F8D2F9C2F0A
S11306A00E9484058823D4F02AE939E941E352E41D
S11306B0602F712F8D2F9C2F0E945B04882374F46C
S11306C00E94F00086E392E00E94FC0A83E191E03C
S11306D0909389008093880083E085B92AE939E9F9
S11306E041E352E4602F712F8D2F9C2F0E948405CB
S11306F08823D4F020E030E048E352E4602F712FE7
S11307008D2F9C2F0E945B04882374F40E94F000B8
S113071086E392E00E94FC0A83E191E090938900D1
S11307208093880083E085B920E030E048E352E418
S1130730602F712F8D2F9C2F0E948405882344F0F5
S11307400E94EA0081E085B9F12C02C0FF24F394F1
S113075081E0F81609F4C0CD89E492E00E94FC0A15
S11307600E940E0120E030E040E251E40E9489053D
S1130770062F172FD82FC92F9F938F937F936F9393
S11307808FE291E09F938F930E94E60A0F900F905F
S11307900F900F900F900F9020E030E044E352E46C
S11307A0602F712F8D2F9C2F0E945B04181674F6F6
S11307B0CFCFE8ECF0E08081886080831092CE0097
S11307C083E38093CD008081876080830895809344
S11307D0D2008091C90084FDFCCF08955058BB27F6
S11307E0AA270E9406040C944A050E943C0538F08E
S11307F00E94430520F039F49F3F19F426F40C9429
S113080039050EF4E095E7FB0C943305E92F0E94BB
S11308105B0558F3BA17620773078407950720F03E
S113082079F4A6F50C947D050EF4E0950B2EBA2F01
S1130830A02D0B01B90190010C01CA01A0011124E2
S1130840FF27591B99F0593F50F4503E68F11A168E
S1130850F040A22F232F342F4427585FF3CF46951F
S113086037952795A795F0405395C9F77EF41F1641
S1130870BA0B620B730B840BBAF09150A1F0FF0F0B
S1130880BB1F661F771F881FC2F70EC0BA0F621FF7
S1130890731F841F48F4879577956795B795F795E7
S11308A09E3F08F0B0CF9395880F08F09927EE0F7C
S11308B09795879508950E940F0508F481E008959F
S11308C00E9474040C944A050E94430558F00E9447
S11308D03C0540F029F45F3F29F00C943305511195
S11308E00C947E050C9439050E945B0568F39923EA
S11308F0B1F3552391F3951B550BBB27AA27621718
S11309007307840738F09F5F5F4F220F331F441F24
S1130910AA1FA9F335D00E2E3AF0E0E832D0915058
S11309205040E695001CCAF72BD0FE2F29D0660F45
S1130930771F881FBB1F261737074807AB07B0E888
S113094009F0BB0B802DBF01FF2793585F4F3AF08E
S11309509E3F510578F00C9433050C947E055F3F5F
S1130960E4F3983ED4F3869577956795B795F79514
S11309709F5FC9F7880F911D9695879597F90895FC
S1130980E1E0660F771F881FBB1F62177307840798
S1130990BA0720F0621B730B840BBA0BEE1F88F7A7
S11309A0E0950895E89409C097FB3EF490958095EE
S11309B0709561957F4F8F4F9F4F9923A9F0F92F21
S11309C096E9BB279395F695879577956795B7959F
S11309D0F111F8CFFAF4BB0F11F460FF1BC06F5F85
S11309E07F4F8F4F9F4F16C0882311F096E911C097
S11309F0772321F09EE8872F762F05C0662371F0B8
S1130A0096E8862F70E060E02AF09A95660F771FCB
S1130A10881FDAF7880F9695879597F90895990FA7
S1130A200008550FAA0BE0E8FEEF16161706E807B4
S1130A30F907C0F012161306E407F50798F0621BD5
S1130A40730B840B950B39F40A2661F0232B242BAA
S1130A50252B21F408950A2609F4A140A6958FEFC9
S1130A60811D811D089597F99F6780E870E060E01B
S1130A7008959FEF80EC089500240A941616170633
S1130A8018060906089500240A941216130614067B
S1130A9005060895092E0394000C11F4882352F0DE
S1130AA0BB0F40F4BF2B11F460FF04C06F5F7F4F96
S1130AB08F4F9F4F089557FD9058440F551F59F07D
S1130AC05F3F71F04795880F97FB991F61F09F3F37
S1130AD079F087950895121613061406551FF2CF60
S1130AE04695F1DF08C0161617061806991FF1CFB0
S1130AF086957105610508940895E894BB276627D7
S1130B007727CB0197F908950E940F0508F48FEF1A
S1130B1008950E949B050C944A050E943C0538F0F8
S1130B200E94430520F0952311F00C9433050C9496
S1130B3039050C947E050E945B0578F39923C9F36B
S1130B405523B9F3950F50E0551FAA27EE27FF2729
S1130B50BB2700240894679520F4E20FF31FB41F09
S1130B600A1E220F331F441FAA1F6695A9F7779503
S1130B7030F4F30FB41F0A1E121E08F46395330FEA
S1130B80441FAA1F221F769599F7879520F4B40F66
S1130B900A1E121E631F440FAA1F221F331F8695AD
S1130BA0A9F7862F712D602D11249F5750409AF07C
S1130BB0F1F088234AF0EE0FFF1FBB1F661F771F5B
S1130BC0881F91505040A9F79E3F510580F00C9426
S1130BD033050C947E055F3FE4F3983ED4F3869589
S1130BE077956795B795F795E7959F5FC1F7FE2BC6
S1130BF0880F911D9695879597F90895A0E1B0E027
S1130C00E4E0F6E00C9485097C011B016A01FC0117
S1130C1017821682838181FF45C39E012F5F3F4F58
S1130C203901F7019381F10193FD859193FF81913E
S1130C301F01882309F432C3853239F493FD859169
S1130C4093FF81911F01853239F4B70190E00E942E
S1130C50AA0A56016501E5CF10E0512C912CFFE161
S1130C60F915E0F08B3281F040F4803281F0833268
S1130C70A9F4F92DF0619F2E3AC08D3259F08033DA
S1130C8069F4292D216021C0392D3260932E892DDC
S1130C90846029C0E92DE8609E2E29C097FC2FC0EE
S1130CA020ED280F2A3098F496FE07C0812F6AE0C1
S1130CB00E947C09122F180F1AC0852D6AE00E9429
S1130CC07C09522E580E292D2062922E10C08E328D
S1130CD031F496FCE3C2392D3064932E08C08C366F
S1130CE021F4892D8068982E02C0883641F4F101E0
S1130CF093FD859193FF81911F018111B0CF9BEBEF
S1130D00980F933020F4992D9061805E07C09BE981
S1130D10980F933008F064C1992D9F7E96FF16E0DA
S1130D209F73992E853611F4906403C0863619F4A6
S1130D309068992E02C01111115097FE07C01C3300
S1130D4050F444244394410E27E00BC0183038F08B
S1130D5027E017E005C027E09CE3492E02C0212FBD
S1130D60412C5601E4E0AE0EB11CF60160817181A4
S1130D7082819381042DA3010E94BC096C01F98135
S1130D80FC87F0FF02C0F3FF06C091FC06C092FE90
S1130D9006C000E205C00DE203C00BE201C000E0A2
S1130DA08C858C7019F001115AC29BC297FE10C039
S1130DB04C0CFC85F4FF04C08A81813309F44A9405
S1130DC0141474F528E0241578F588E0482E2CC016
S1130DD096FC2AC0812F90E08C159D059CF03CEF79
S1130DE0C3163FEFD30674F0892D8068982E0AC08D
S1130DF0E2E0F0E0EC0FFD1FE10FF11D8081803394
S1130E0019F411501111F4CF97FE0EC044244394E9
S1130E10410E812F90E0C816D9062CF41C1904C089
S1130E204424439401C010E097FE06C01C141D0422
S1130E3034F4C601019605C085E090E002C081E06B
S1130E4090E001110196112331F0212F30E02F5F42
S1130E503F4F820F931F252D30E08217930714F420
S1130E60581A01C0512C892D897049F4552039F044
S1130E70B70180E290E00E94AA0A5A94F7CF0023B7
S1130E8029F0B701802F90E00E94AA0A93FC09C0C0
S1130E90552039F0B70180E390E00E94AA0A5A94E1
S1130EA0F7CF97FE4CC04601D7FE02C0812C912C8F
S1130EB0C60188199909F301E80FF91FFE87ED8728
S1130EC0960124193109388B2F87012F10E01195D1
S1130ED0019511093FEF8316930629F4B7018EE2B9
S1130EE090E00E94AA0AC814D9044CF08F8598890E
S1130EF08815990524F4ED85FE85818101C080E380
S1130F00F1E08F1A91082D853E852F5F3F4F3E8774
S1130F102D87801691062CF0B70190E00E94AA0A52
S1130F20D9CFC814D90441F49A81963320F4953367
S1130F3019F43C8534FF81E3B70190E04EC08A8107
S1130F40813319F09C859F7E9C87B70190E00E94B5
S1130F50AA0A111105C094FC18C085E690E017C0D8
S1130F60B7018EE290E00E94AA0A1E5F82E001E0CF
S1130F70080FF301E80FF11D8081B70190E00E9492
S1130F80AA0A802F0113F3CFE6CF85E490E0B701DE
S1130F900E94AA0AD7FC06C0C114D10441F4EC850E
S1130FA0E4FF05C0D194C194D1088DE201C08BE265
S1130FB0B70190E00E94AA0A80E32AE0C216D10495
S1130FC02CF08F5FFAE0CF1AD108F7CFB70190E089
S1130FD00E94AA0AB701C601C0960E94AA0A54C177
S1130FE0833631F0833779F0833509F056C020C059
S1130FF0560132E0A30EB11CF6018081898301E021
S113100010E0630112C05601F2E0AF0EB11CF6010C
S1131010C080D18096FE03C0612F70E002C06FEFE4
S11310207FEFC6010E949F0A8C01F92DFF7714C03F
S1131030560122E0A20EB11CF601C080D18096FEBA
S113104003C0612F70E002C06FEF7FEFC6010E9402
S1131050940A8C01F92DF0689F2EF3FD1AC0852D9A
S113106090E008171907A8F4B70180E290E00E9405
S1131070AA0A5A94F4CFF60197FC859197FE8191C0
S11310806F01B70190E00E94AA0A51105A940150CE
S113109011090115110579F7F7C0843611F0893665
S11310A061F5560197FE09C024E0A20EB11CF601B9
S11310B060817181828193810AC0F2E0AF0EB11C1C
S11310C0F60160817181072E000C880B990BF92DB4
S11310D0FF769F2E97FF09C0909580957095619536
S11310E07F4F8F4F9F4FF0689F2E2AE030E0A3017F
S11310F00E942C0BC82EC6183FC0092D853721F439
S11311000F7E2AE030E01DC0097F8F3691F018F47D
S1131110883559F0C3C0803719F0883711F0BEC044
S1131120006104FF09C0046007C094FE08C00660A3
S113113006C028E030E005C020E130E002C020E134
S113114032E0560107FF09C084E0A80EB11CF60185
S1131150608171818281938108C0F2E0AF0EB11C7D
S1131160F6016081718180E090E0A3010E942C0B64
S1131170C82EC6180F77902E96FE0BC0092D0E7F31
S1131180C11650F494FE0AC092FC08C0092D0E7ECC
S113119005C0DC2C092D03C0DC2C01C0D12E04FFBA
S11311A00DC0FE01EC0DF11D8081803311F4097E28
S11311B009C002FF06C0D394D39404C0802F86785C
S11311C009F0D39403FD11C000FF06C01C2DD514F3
S11311D080F4150D1D190DC0D51458F4B70180E223
S11311E090E00E94AA0AD394F7CFD51410F45D18A6
S11311F001C0512C04FF10C0B70180E390E00E94AD
S1131200AA0A02FF17C001FD03C088E790E002C0EC
S113121088E590E0B7010CC0802F867859F001FF73
S113122002C08BE201C080E207FD8DE2B70190E0CD
S11312300E94AA0AC11638F4B70180E390E00E9424
S1131240AA0A1150F7CFCA94F301EC0DF11D808165
S1131250B70190E00E94AA0AC110F5CF15C0F4E0CE
S1131260F51560F584E0581A93FE1FC0011127C0DC
S11312702C8523FF2AC000E510E0392D3071932E10
S1131280F8018491811124C0552009F4E3CCB701FD
S113129080E290E00E94AA0A5A94F6CFF701868170
S11312A0978126C08FEF9FEF23C0B70180E290E0C3
S11312B00E94AA0A5A945110F8CFD8CF512CB701E2
S11312C0802F90E00E94AA0AD3CF04E510E0D5CF86
S11312D091108052B70190E00E94AA0A0F5F1F4F3D
S11312E0CFCF23E0251510F483E0BDCF512CC0CF20
S11312F06096E2E10C94A109002480FD060E660FBD
S113130011F08695D1F7802D08952F923F924F9238
S11313105F926F927F928F929F92AF92BF92CF9281
S1131320DF92EF92FF920F931F93CF93DF93CDB78A
S1131330DEB7CA1BDB0B0FB6F894DEBF0FBECDBF02
S113134009942A88398848885F846E847D848C84D3
S11313509B84AA84B984C884DF80EE80FD800C81DC
S11313601B81AA81B981CE0FD11D0FB6F894DEBFBF
S11313700FBECDBFED010895283008F027E03327D4
S1131380DA01990F311D87FD9160009661057105A1
S113139039F432602E5F3D9330E32A95E1F70895E6
S11313A09F3F30F080387105610509F03C5F3C5F78
S11313B03D93913008F08068911DDF93CF931F9384
S11313C00F93FF92EF92192F987F9695E92F969598
S11313D09695E90FFF27EE54FF4F99273327EE2404
S11313E0FF24A701E70105900894079428F4360F19
S11313F0E71EF81E491F511D660F771F881F991F8E
S11314000694A1F70590079428F4E70EF81E491FE7
S1131410561FC11D770F881F991F661F0694A1F7D9
S11314200590079428F4F80E491F561FC71FD11DB5
S1131430880F991F661F771F0694A1F705900794DC
S113144020F4490F561FC71FD81F990F661F771F17
S1131450881F0694A9F784911095177041F0D695CA
S1131460C79557954795F794E7941A95C1F7E8E51A
S1131470F0E06894159015913591659195910590DA
S11314807FE27395E118F10A430B560BC90BD0099F
S1131490C0F7E10CF11E431F561FC91FD01D7EF477
S11314A0703311F48A95E6CFE894015030F0080FB8
S11314B00AF40027021708F4202F2395022F7A3309
S11314C028F079E37D932A95E9F710C07D932A9556
S11314D089F6069497956795379517951794E118AB
S11314E0F10A430B560BC90BD00998F023957E9152
S11314F073957A3308F070E37C932013B8F77E91E8
S113150070617D9330F0839571E37D9370E32A9548
S1131510E1F71124EF90FF900F911F91CF91DF918C
S1131520992787FD90950895FC01059061507040BE
S11315300110D8F7809590958E0F9F1F0895FC0198
S11315406150704001900110D8F7809590958E0FEE
S11315509F1F08950F931F93CF93DF93FB01238164
S113156021FD03C08FEF9FEF2CC022FF16C04681E0
S11315705781248135814217530744F4A081B181F6
S11315809D012F5F3F4F318320838C9326813781C8
S11315902F5F3F4F3783268314C08B01EC01FB017F
S11315A00084F185E02D0995892BE1F6D801169682
S11315B08D919C911797019617969C938E931697ED
S11315C0CE01DF91CF911F910F910895A0E0B0E07B
S11315D0ECEEFAE00C949509AE014B5F5F4FFA0113
S11315E061917191AF0180915A0290915B020E94C6
S11315F0FE05E2E00C94B1090F931F93CF93DF93A0
S1131600E0915A02F0915B02238121FF1BC08C01FF
S1131610D0E0C0E0F80181918F0160915A0270918D
S11316205B02DB011896ED91FC911997882331F048
S11316300995892B79F3DFEFCFEFECCF8AE0099599
S1131640892B19F08FEF9FEF02C08D2F9C2FDF9114
S1131650CF911F910F910895FA01AA27283061F1C3
S1131660203191F1E8946F936E7F6E5F7F4F8F4FBF
S11316709F4FAF4FB1E040D0B4E03ED0670F781F2A
S1131680891F9A1FA11D680F791F8A1F911DA11D13
S11316906A0F711D811D911DA11D22D009F468944A
S11316A03F91062E000C3019000C000C3019305DEF
S11316B03193CEF6CF010895462F4770405D419394
S11316C0B3E00FD0C9F7F6CF462F4F70405D4A33D1
S11316D018F0495D31FD4052419302D0A9F7EACF99
S11316E0B4E0A6959795879577956795BA95C9F7C8
S11316F000976105710508959B01AC010A2E0694BB
S11317005795479537952795BA95C9F7620F731F73
S10F1710841F951FA01D0895F894FFCFBE
S113171C0000000200000000E70300000000696EF6
S113172C69745F737570706C792053544152540D05
S113173C00ECB6A9ECA084EBAAA8EB939C0D005288
S113174C65616420566F6C74203D2025660D0A4437
S113175C6F6E650D0A0050574D206F7574204475DB
S113176C74793A20302E31310D0050574D206F755D
S113177C7420447574793A20302E31320D00505750
S113178C4D206F757420447574793A20302E3133A2
S113179C0D0050574D206F757420447574793A20A0
S11317AC302E31340D0050574D206F757420447514
S11317BC74793A20302E31350D0050574D206F7509
S11317CC7420447574793A20302E31360D005057FC
S11317DC4D206F757420447574793A20302E31384D
S11317EC0D0050574D206F757420447574793A2050
S11317FC302E32300D0050574D206F7574204475C7
S113180C74793A20302E32340D0050574D206F75B8
S113181C7420447574793A20302E33300D005057AF
S113182C4D206F757420447574793A20302E343001
S113183C0D0050574D206F757420447574793A20FF
S113184C302E36300D0050574D206F757420447572
S113185C74793A203130300D00EBB0A9ECA084EB54
S10B186CAAA8EB939C0D0000F7
S9030000FC
