S01C000053656E73636F725F494E544552464143455F42442E7372656356
S11300000C94B4000C94D1000C94D1000C94D10045
S11300100C94D1000C94D1000C94D1000C94D10018
S11300200C94D1000C94D1000C94D1000C94D10008
S11300300C94D1000C94D1000C94D1000C94D100F8
S11300400C94D1000C94D1000C94D1000C94D100E8
S11300505D0264026D0275027E02AC02BA02E6021F
S1130060F602220331036E616E00696E6600004081
S11300707A10F35A00A0724E18090010A5D4E800B3
S113008000E87648170000E40B54020000CA9A3BCB
S1130090000000E1F5050000809698000000404251
S11300A00F000000A08601000000102700000000DF
S11300B0E803000000006400000000000A000000E3
S11300C000000100000000002C76D888DC674F088F
S11300D023DFC1DFAE59E1B1B796E5E3E453C63A95
S11300E0E651997696E8E6C28426EB898C9B62ED0C
S11300F0407C6FFCEFBC9C9F40F2BAA56FA5F490C6
S1130100055A2AF75C936B6CF9676DC11BFCE0E43C
S11301100D47FEF520E6B500D0ED902E0300943592
S113012077050080841E080000204E0A000000C8E5
S11301300C333333330F986E12831141EF8D211436
S1130140893BE65516CFFEE6DB18D1844B381BF706
S11301507C1D901DA4BBE424203284725E228100A5
S1130160C9F124ECA1E53D2711241FBECFEFD2E055
S1130170DEBFCDBF11E0A0E0B1E0E6EDF5E102C0E5
S113018005900D92A034B107D9F721E0A0E4B1E0C5
S113019001C01D92A337B207E1F70E94D3000C946B
S11301A0E90A0C9400000E94000284B1896484B9B5
S11301B085B1816085B9EDE6F1E08EE091E093834D
S11301C0828380E091E09183808386E00E9429020B
S11301D02FEF8FEF96E8215080409040E1F700C068
S11301E0000015B8C0E0D0E007C0FE01E45EFE4F99
S11301F080810E940E022196C530D105B4F315B852
S11302001092D200E9ECF0E080818E7F8083C0E020
S1130210D0E007C00E941502FE01E05CFE4F80831F
S11302202196CE30D105B4F32FEF8FE794E021501F
S113023080409040E1F700C000000E9441022FEF8F
S11302408FE794E0215080409040E1F700C0000027
S1130250CCE7D0E08881807E866088832FEF8FE7AB
S113026094E0215080409040E1F700C000000E94DB
S11302702002BC01990F880B990B0E944D042DE3B9
S11302803AE047EA50E40E94D90420E030EC4FE71A
S113029054E40E94D9032FE135E843EA50E40E9474
S11302A0D9036B017C019B01AC0160E070E080E844
S11302B09FE30E946C039B01AC01C701B6010E943D
S11302C0D90320E030E44CE156E40E94D904162F0F
S11302D0072FF82EE92E2FEF8FE794E0215080406E
S11302E09040E1F700C000008881807E83608883AD
S11302F02FEF8FE794E0215080409040E1F700C059
S113030000000E942002BC01990F880B990B0E94E7
S11303104D042DE33AE047EA50E40E94D90420E07A
S113032030EC4FE754E40E94D903D62EC72EB82EE2
S1130330A92E0E9447022FEF8FE79DE021508040B5
S11303409040E1F700C0000088E485B92FEF8FE703
S11303509DE0215080409040E1F700C0000081E220
S113036091E09F938F930E943C0A87E291E00E9460
S1130370590A0F900F90C0E0D0E011C0FE01E05C7C
S1130380FE4F80811F928F9389E291E09F938F9318
S11303900E943C0A21960F900F900F900F90CE3040
S11303A0D10564F387E291E00E94590A80E491E068
S11303B00E944D02EF92FF920F931F938CE291E003
S11303C09F938F930E943C0AAF92BF92CF92DF9289
S11303D086E391E09F938F930E943C0A2FEF8FEF67
S11303E091E1215080409040E1F700C000008DB7BA
S11303F09EB70C960FB6F8949EBF0FBE8DBFF1CE7C
S1130400E8ECF0E08081886080831092CE0083E085
S11304108093CD0080818760808308958093D2008B
S11304208091C90084FDFCCF08958091C90080FFAC
S1130430FCCF8091CB0086FDFCCF8091D200089543
S113044080917A0084FFFCCF8091780090917900AC
S11304500895ACE7B0E09C919B7F9C93EAE7F0E0C1
S1130460908195609083908190689083908190644E
S113047090839081906290839C91907E892B8C9341
S11304800895EAE7F0E08081806480830895EAE7D4
S1130490F0E080818F7B80830895CF93DF93DC012C
S11304A0E0914E014E2F50E04B30510508F011C140
S11304B0FA01E85DFF4F0C94D5088C91883609F059
S11304C008C181E080934E0111968C9111978D3073
S11304D009F0FFC082E080934E0112968C9112972E
S11304E08111F7C083E080934E0113968C9113978A
S11304F0843809F0EEC084E080934E01E3E6F1E035
S11305008EE3808380E581838DE3828314968C91CE
S11305101497982F92959F70913021F49DE29093B7
S1130520660103C09BE290936601E3E6F1E08F70FD
S1130530805D848315968C91159782958F70805D6C
S1130540858315968C9115978F70805D86838EE2D6
S1130550878385E080934E0116968C911697829539
S11305608F70E3E6F1E0805D808780E3818786E039
S113057080934E01E9E5F1E08EE3808382E5818397
S11305808DE3828317968C911797982F92959F707D
S1130590913021F49DE290935C0103C09BE290931F
S11305A05C01E9E5F1E08F70805D848318968C919D
S11305B01897982F92959F70905D95838F70805DAA
S11305C086838EE2878387E080934E0119968C910F
S11305D01997982F92959F70E9E5F1E0905D9087C7
S11305E08F70805D818788E080934E01EFE4F1E0B5
S11305F08EE3808388E481838DE382831A968C91D1
S11306001A97982F92959F70913021F49DE29093C0
S1130610520103C09BE290935201EFE4F1E08F702A
S1130620805D84831B968C911B97982F92959F7065
S1130630905D95838F70805D86838EE2878389E0E9
S113064080934E011C968C91982F92959F70EFE4A5
S1130650F1E0905D90878F70805D81878AE0809360
S11306604E01C0E0D0E008C0FE01ED59FE4F80818C
S113067090E00E94520A2196CA30D105ACF387E279
S113068091E00E94590AC0E0D0E008C0FE01E75A98
S1130690FE4F808190E00E94520A2196CA30D10513
S11306A0ACF387E291E00E94590AC0E0D0E008C0B0
S11306B0FE01E15BFE4F808190E00E94520A219688
S11306C0CA30D105ACF387E291E00E94590A109236
S11306D04E01DF91CF9108955058BB27AA270E945D
S11306E084030C949F040E94910438F00E9498049F
S11306F020F039F49F3F19F426F40C948E040EF480
S1130700E095E7FB0C948804E92F0E94B00458F3A9
S1130710BA17620773078407950720F079F4A6F5E2
S11307200C94D2040EF4E0950B2EBA2FA02D0B01DD
S1130730B90190010C01CA01A0011124FF27591B22
S113074099F0593F50F4503E68F11A16F040A22F28
S1130750232F342F4427585FF3CF46953795279599
S1130760A795F0405395C9F77EF41F16BA0B620B98
S1130770730B840BBAF09150A1F0FF0FBB1F661FDF
S1130780771F881FC2F70EC0BA0F621F731F841F22
S113079048F4879577956795B795F7959E3F08F048
S11307A0B0CF9395880F08F09927EE0F979587950A
S11307B008950E94ED030C949F040E94980458F03D
S11307C00E94910440F029F45F3F29F00C948804BE
S11307D051110C94D3040C948E040E94B00468F359
S11307E09923B1F3552391F3951B550BBB27AA27E6
S11307F062177307840738F09F5F5F4F220F331F20
S1130800441FAA1FA9F335D00E2E3AF0E0E832D0E7
S113081091505040E695001CCAF72BD0FE2F29D0EA
S1130820660F771F881FBB1F261737074807AB07BC
S1130830B0E809F0BB0B802DBF01FF2793585F4F31
S11308403AF09E3F510578F00C9488040C94D3043C
S11308505F3FE4F3983ED4F3869577956795B79513
S1130860F7959F5FC9F7880F911D9695879597F91E
S11308700895E1E0660F771F881FBB1F6217730797
S11308808407BA0720F0621B730B840BBA0BEE1FAC
S113089088F7E0950895E89409C097FB3EF4909595
S11308A08095709561957F4F8F4F9F4F9923A9F045
S11308B0F92F96E9BB279395F695879577956795D4
S11308C0B795F111F8CFFAF4BB0F11F460FF1BC018
S11308D06F5F7F4F8F4F9F4F16C0882311F096E9AB
S11308E011C0772321F09EE8872F762F05C0662359
S11308F071F096E8862F70E060E02AF09A95660F12
S1130900771F881FDAF7880F9695879597F90895CA
S113091097F99F6780E870E060E008959FEF80ECAE
S1130920089500240A941616170618060906089551
S113093000240A9412161306140605060895092EB7
S11309400394000C11F4882352F0BB0F40F4BF2B26
S113095011F460FF04C06F5F7F4F8F4F9F4F089566
S113096057FD9058440F551F59F05F3F71F047955C
S1130970880F97FB991F61F09F3F79F08795089541
S1130980121613061406551FF2CF4695F1DF08C060
S1130990161617061806991FF1CF8695710561057D
S11309A008940895E894BB2766277727CB0197F925
S11309B008950E94EB040C949F040E94910438F063
S11309C00E94980420F0952311F00C9488040C9450
S11309D08E040C94D3040E94B00478F39923C9F3D1
S11309E05523B9F3950F50E0551FAA27EE27FF278B
S11309F0BB2700240894679520F4E20FF31FB41F6B
S1130A000A1E220F331F441FAA1F6695A9F7779564
S1130A1030F4F30FB41F0A1E121E08F46395330F4B
S1130A20441FAA1F221F769599F7879520F4B40FC7
S1130A300A1E121E631F440FAA1F221F331F86950E
S1130A40A9F7862F712D602D11249F5750409AF0DD
S1130A50F1F088234AF0EE0FFF1FBB1F661F771FBC
S1130A60881F91505040A9F79E3F510580F00C9487
S1130A7088040C94D3045F3FE4F3983ED4F3869542
S1130A8077956795B795F795E7959F5FC1F7FE2B27
S1130A90880F911D9695879597F90895A0E1B0E088
S1130AA0E4E5F5E00C94DB087C011B016A01FC0120
S1130AB017821682838181FF45C39E012F5F3F4FBA
S1130AC03901F7019381F10193FD859193FF8191A0
S1130AD01F01882309F432C3853239F493FD8591CB
S1130AE093FF81911F01853239F4B70190E00E9490
S1130AF0000A56016501E5CF10E0512C912CFFE16D
S1130B00F915E0F08B3281F040F4803281F08332C9
S1130B10A9F4F92DF0619F2E3AC08D3259F080333B
S1130B2069F4292D216021C0392D3260932E892D3D
S1130B30846029C0E92DE8609E2E29C097FC2FC04F
S1130B4020ED280F2A3098F496FE07C0812F6AE022
S1130B500E94CC08122F180F1AC0852D6AE00E943B
S1130B60CC08522E580E292D2062922E10C08E329F
S1130B7031F496FCE3C2392D3064932E08C08C36D0
S1130B8021F4892D8068982E02C0883641F4F10141
S1130B9093FD859193FF81911F018111B0CF9BEB50
S1130BA0980F933020F4992D9061805E07C09BE9E3
S1130BB0980F933008F064C1992D9F7E96FF16E03C
S1130BC09F73992E853611F4906403C0863619F408
S1130BD09068992E02C01111115097FE07C01C3362
S1130BE050F444244394410E27E00BC0183038F0ED
S1130BF027E017E005C027E09CE3492E02C0212F1F
S1130C00412C5601E4E0AE0EB11CF6016081718105
S1130C1082819381042DA3010E9412096C01F98140
S1130C20FC87F0FF02C0F3FF06C091FC06C092FEF1
S1130C3006C000E205C00DE203C00BE201C000E003
S1130C408C858C7019F001115AC29BC297FE10C09A
S1130C504C0CFC85F4FF04C08A81813309F44A9466
S1130C60141474F528E0241578F588E0482E2CC077
S1130C7096FC2AC0812F90E08C159D059CF03CEFDA
S1130C80C3163FEFD30674F0892D8068982E0AC0EE
S1130C90E2E0F0E0EC0FFD1FE10FF11D80818033F5
S1130CA019F411501111F4CF97FE0EC0442443944B
S1130CB0410E812F90E0C816D9062CF41C1904C0EB
S1130CC04424439401C010E097FE06C01C141D0484
S1130CD034F4C601019605C085E090E002C081E0CD
S1130CE090E001110196112331F0212F30E02F5FA4
S1130CF03F4F820F931F252D30E08217930714F482
S1130D00581A01C0512C892D897049F4552039F0A5
S1130D10B70180E290E00E94000A5A94F7CF0023C2
S1130D2029F0B701802F90E00E94000A93FC09C0CB
S1130D30552039F0B70180E390E00E94000A5A94EC
S1130D40F7CF97FE4CC04601D7FE02C0812C912CF0
S1130D50C60188199909F301E80FF91FFE87ED8789
S1130D60960124193109388B2F87012F10E0119532
S1130D70019511093FEF8316930629F4B7018EE21A
S1130D8090E00E94000AC814D9044CF08F85988919
S1130D908815990524F4ED85FE85818101C080E3E1
S1130DA0F1E08F1A91082D853E852F5F3F4F3E87D6
S1130DB02D87801691062CF0B70190E00E94000A5E
S1130DC0D9CFC814D90441F49A81963320F49533C9
S1130DD019F43C8534FF81E3B70190E04EC08A8169
S1130DE0813319F09C859F7E9C87B70190E00E9417
S1130DF0000A111105C094FC18C085E690E017C0E4
S1130E00B7018EE290E00E94000A1E5F82E001E0DA
S1130E10080FF301E80FF11D8081B70190E00E94F3
S1130E20000A802F0113F3CFE6CF85E490E0B701E9
S1130E300E94000AD7FC06C0C114D10441F4EC8519
S1130E40E4FF05C0D194C194D1088DE201C08BE2C6
S1130E50B70190E00E94000A80E32AE0C216D104A0
S1130E602CF08F5FFAE0CF1AD108F7CFB70190E0EA
S1130E700E94000AB701C601C0960E94000A54C12C
S1130E80833631F0833779F0833509F056C020C0BA
S1130E90560132E0A30EB11CF6018081898301E082
S1130EA010E0630112C05601F2E0AF0EB11CF6016E
S1130EB0C080D18096FE03C0612F70E002C06FEF46
S1130EC07FEFC6010E94F5098C01F92DFF7714C04C
S1130ED0560122E0A20EB11CF601C080D18096FE1C
S1130EE003C0612F70E002C06FEF7FEFC6010E9464
S1130EF0EA098C01F92DF0689F2EF3FD1AC0852DA7
S1130F0090E008171907A8F4B70180E290E00E9466
S1130F10000A5A94F4CFF60197FC859197FE8191CB
S1130F206F01B70190E00E94000A51105A940150D9
S1130F3011090115110579F7F7C0843611F08936C6
S1130F4061F5560197FE09C024E0A20EB11CF6011A
S1130F5060817181828193810AC0F2E0AF0EB11C7D
S1130F60F60160817181072E000C880B990BF92D15
S1130F70FF769F2E97FF09C0909580957095619597
S1130F807F4F8F4F9F4FF0689F2E2AE030E0A301E0
S1130F900E94890AC82EC6183FC0092D853721F43E
S1130FA00F7E2AE030E01DC0097F8F3691F018F4DF
S1130FB0883559F0C3C0803719F0883711F0BEC0A6
S1130FC0006104FF09C0046007C094FE08C0066005
S1130FD006C028E030E005C020E130E002C020E196
S1130FE032E0560107FF09C084E0A80EB11CF601E7
S1130FF0608171818281938108C0F2E0AF0EB11CDF
S1131000F6016081718180E090E0A3010E94890A69
S1131010C82EC6180F77902E96FE0BC0092D0E7F92
S1131020C11650F494FE0AC092FC08C0092D0E7E2D
S113103005C0DC2C092D03C0DC2C01C0D12E04FF1B
S11310400DC0FE01EC0DF11D8081803311F4097E89
S113105009C002FF06C0D394D39404C0802F8678BD
S113106009F0D39403FD11C000FF06C01C2DD51454
S113107080F4150D1D190DC0D51458F4B70180E284
S113108090E00E94000AD394F7CFD51410F45D18B1
S113109001C0512C04FF10C0B70180E390E00E940E
S11310A0000A02FF17C001FD03C088E790E002C0F8
S11310B088E590E0B7010CC0802F867859F001FFD5
S11310C002C08BE201C080E207FD8DE2B70190E02F
S11310D00E94000AC11638F4B70180E390E00E9430
S11310E0000A1150F7CFCA94F301EC0DF11D808171
S11310F0B70190E00E94000AC110F5CF15C0F4E0DA
S1131100F51560F584E0581A93FE1FC0011127C03D
S11311102C8523FF2AC006E610E0392D3071932E6A
S1131120F8018491811124C0552009F4E3CCB7015E
S113113080E290E00E94000A5A94F6CFF70186817B
S1131140978126C08FEF9FEF23C0B70180E290E024
S11311500E94000A5A945110F8CFD8CF512CB701ED
S1131160802F90E00E94000AD3CF0AE610E0D5CF8A
S113117091108052B70190E00E94000A0F5F1F4F48
S1131180CFCF23E0251510F483E0BDCF512CC0CF81
S11311906096E2E10C94F708002480FD060E660FC9
S11311A011F08695D1F7802D0895EE0FFF1F05905D
S11311B0F491E02D09942F923F924F925F926F9297
S11311C07F928F929F92AF92BF92CF92DF92EF92D3
S11311D0FF920F931F93CF93DF93CDB7DEB7CA1B54
S11311E0DB0B0FB6F894DEBF0FBECDBF09942A887F
S11311F0398848885F846E847D848C849B84AA8427
S1131200B984C884DF80EE80FD800C811B81AA81B3
S1131210B981CE0FD11D0FB6F894DEBF0FBECDBF7E
S1131220ED010895283008F027E03327DA01990FFB
S1131230311D87FD916000966105710539F43260B6
S11312402E5F3D9330E32A95E1F708959F3F30F0F8
S113125080387105610509F03C5F3C5F3D93913036
S113126008F08068911DDF93CF931F930F93FF9233
S1131270EF92192F987F9695E92F96959695E90FF9
S1131280FF27E853FF4F99273327EE24FF24A701B4
S1131290E70105900894079428F4360FE71EF81E1A
S11312A0491F511D660F771F881F991F0694A1F7C8
S11312B00590079428F4E70EF81E491F561FC11D18
S11312C0770F881F991F661F0694A1F7059007944E
S11312D028F4F80E491F561FC71FD11D880F991FE8
S11312E0661F771F0694A1F70590079420F4490F11
S11312F0561FC71FD81F990F661F771F881F069494
S1131300A9F784911095177041F0D695C795579514
S11313104795F794E7941A95C1F7EEE6F0E06894E0
S11313201590159135916591959105907FE273958E
S1131330E118F10A430B560BC90BD009C0F7E10CB5
S1131340F11E431F561FC91FD01D7EF4703311F4C4
S11313508A95E6CFE894015030F0080F0AF400278C
S1131360021708F4202F2395022F7A3328F079E30B
S11313707D932A95E9F710C07D932A9589F6069402
S113138097956795379517951794E118F10A430BCC
S1131390560BC90BD00998F023957E9173957A3337
S11313A008F070E37C932013B8F77E9170617D930D
S11313B030F0839571E37D9370E32A95E1F711246E
S11313C0EF90FF900F911F91CF91DF91992787FDA7
S11313D090950895FC010590615070400110D8F774
S11313E0809590958E0F9F1F0895FC016150704069
S11313F001900110D8F7809590958E0F9F1F089546
S11314000F931F93CF93DF93FB01238121FD03C02F
S11314108FEF9FEF2CC022FF16C046815781248195
S113142035814217530744F4A081B1819D012F5F98
S11314303F4F318320838C93268137812F5F3F4F29
S11314403783268314C08B01EC01FB010084F185F2
S1131450E02D0995892BE1F6D80116968D919C9182
S11314601797019617969C938E931697CE01DF914A
S1131470CF911F910F910895A0E0B0E0E2E4FAE06B
S11314800C94EB08AE014B5F5F4FFA0161917191CF
S1131490AF0180916F01909170010E944E05E2E0CE
S11314A00C94070960916F01709170010E94000A09
S11314B008950F931F93CF93DF93E0916F01F09101
S11314C07001238121FF1BC08C01D0E0C0E0F80132
S11314D081918F0160916F0170917001DB01189609
S11314E0ED91FC911997882331F00995892B79F3B3
S11314F0DFEFCFEFECCF8AE00995892B19F08FEF5E
S11315009FEF02C08D2F9C2FDF91CF911F910F91E0
S11315100895FA01AA27283061F1203191F1E89465
S11315206F936E7F6E5F7F4F8F4F9F4FAF4FB1E0D2
S113153040D0B4E03ED0670F781F891F9A1FA11DC9
S1131540680F791F8A1F911DA11D6A0F711D811DCE
S1131550911DA11D22D009F468943F91062E000C20
S11315603019000C000C3019305D3193CEF6CF01E8
S11315700895462F4770405D4193B3E00FD0C9F7FB
S1131580F6CF462F4F70405D4A3318F0495D31FD68
S11315904052419302D0A9F7EACFB4E0A6959795BB
S11315A0879577956795BA95C9F700976105710591
S11315B008959B01AC010A2E0694579547953795DB
S11315C02795BA95C9F7620F731F841F951FA01D35
S10915D00895F894FFCF1A
S11315D600000001000000000000150200000000E9
S11315E60002000000000E0200000000680400046F
S11315F6085354415254000D002564003E52544889
S11316063D25660D0A003E70613D25660D0A000003
S9030000FC
